:100000000C9462000C948A000C948A000C948A0070
:100010000C948A000C948A000C948A000C948A0038
:100020000C948A000C948A000C948A000C948A0028
:100030000C948A000C948A000C948A000C948A0018
:100040000C94D1030C948A000C949F030C947903B4
:100050000C948A000C948A000C948A000C948A00F8
:100060000C948A000C948A000000000023002600F3
:10007000290000000000240027002A0000000000E2
:10008000250028002B0004040404040404040202D4
:100090000202020203030303030301020408102007
:1000A0004080010204081020010204081020000012
:1000B0000008000201000003040700000000000027
:1000C00000001B0411241FBECFEFD8E0DEBFCDBF60
:1000D00022E0A0E6B1E001C01D92A435B207E1F72D
:1000E00011E0A0E0B1E0E4E5FDE002C005900D9272
:1000F000A036B107D9F710E0C2E6D0E004C02197DE
:10010000FE010E949D06C136D107C9F70E945A041C
:100110000C94A8060C940000E1E7F1E0A089B189F5
:1001200082E08C93A485B5851C92A685B7858FEC5B
:100130008C93108EA489B58986E08C93A289B389AB
:100140008C9180618C93A289B3898C9188608C9307
:10015000A289B3898C9180688C930288F389E02D01
:1001600080818F7D80830895CF92DF92EF92FF92FE
:100170000F931F93CF93DF936C017A018B01C0E043
:10018000D0E0CE15DF0581F0D8016D918D01D6014B
:10019000ED91FC910190F081E02DC6010995892B2C
:1001A00011F02196EECF7E01C701DF91CF911F9113
:1001B0000F91FF90EF90DF90CF900895089580E029
:1001C00090E00895FC01538D448D252F30E0842F5D
:1001D00090E0821B930B541710F0CF96089501976F
:1001E0000895FC01918D828D981761F0828DDF0159
:1001F000A80FB11D5D968C91928D9F5F9F73928F1A
:1002000090E008958FEF9FEF0895FC01918D828D0E
:10021000981731F0828DE80FF11D858D90E00895DB
:100220008FEF9FEF0895FC01918D228D892F90E033
:10023000805C9F4F821B91098F739927089581E7F6
:1002400091E00E94130121E0892B09F420E0822F24
:100250000895FC01848DDF01A80FB11DA35ABF4F83
:100260002C91848D90E001968F739927848FA689B5
:10027000B7892C93A089B1898C91837080648C9309
:10028000938D848D981306C00288F389E02D8081B8
:100290008F7D80830895EF92FF920F931F93CF93EA
:1002A000DF93EC0181E0888F9B8D8C8D981305C0C6
:1002B000E889F989808185FD26C0F62E0B8D10E036
:1002C0000F5F1F4F0F731127E02E8C8DE8120CC0AB
:1002D0000FB607FCFACFE889F989808185FFF5CF51
:1002E000CE010E942901F1CF8B8DFE01E80FF11D97
:1002F000E35AFF4FF0829FB7F8940B8FEA89FB898E
:10030000808180620AC09FB7F894EE89FF8960837C
:10031000E889F98980818370806480839FBF81E050
:1003200090E0DF91CF911F910F91FF90EF90089592
:10033000CF93DF93EC01888D8823C9F0EA89FB898C
:10034000808185FD05C0A889B9898C9186FD0FC083
:100350000FB607FCF5CF808185FFF2CFA889B98958
:100360008C9185FFEDCFCE010E942901E7CFDF916F
:10037000CF91089580E090E0892B29F00E941F0121
:1003800081110C9400000895833081F028F48130AD
:1003900099F08230A1F008958730A9F08830B9F043
:1003A0008430D1F4809180008F7D03C080918000E3
:1003B0008F7780938000089584B58F7702C084B5CD
:1003C0008F7D84BD08958091B0008F7703C08091A8
:1003D000B0008F7D8093B00008951F93CF93DF937B
:1003E000282F30E0F901E255FF4F8491F901E656DC
:1003F000FF4FD491F901EA57FF4FC491CC23C1F0CC
:10040000162F81110E94C401EC2FF0E0EE0FFF1FA8
:10041000E458FF4FA591B4919FB7F894111104C00F
:100420008C91D095D82302C0EC91DE2BDC939FBF3A
:10043000DF91CF911F910895CF93DF9390E0FC015E
:10044000E656FF4F2491FC01EA57FF4F8491882321
:1004500061F190E0880F991FFC01EE58FF4FC591A4
:10046000D491FC01E458FF4FA591B491611109C0EA
:100470009FB7F8948881209582238883EC912E235E
:100480000BC0623061F49FB7F8948881322F3095A9
:1004900083238883EC912E2B2C939FBF06C08FB7AC
:1004A000F894E8812E2B28838FBFDF91CF91089598
:1004B0003FB7F8948091650190916601A091670122
:1004C000B091680126B5A89B05C02F3F19F0019691
:1004D000A11DB11D3FBFBA2FA92F982F8827820FCA
:1004E000911DA11DB11DBC01CD0142E0660F771F1A
:1004F000881F991F4A95D1F708958F929F92AF92C6
:10050000BF92CF92DF92EF92FF926B017C010E942B
:1005100058024B015C01C114D104E104F104F1F073
:100520000E945802DC01CB0188199909AA09BB096C
:10053000883E9340A105B10570F321E0C21AD108AD
:10054000E108F10888EE880E83E0981EA11CB11C1A
:10055000C114D104E104F10419F7DDCFFF90EF904D
:10056000DF90CF90BF90AF909F908F9008952FB75E
:10057000F8946091610170916201809163019091A2
:1005800064012FBF0895CF93DF93E8EBF0E08491EF
:10059000E4EAF0E0D491E0E9F0E0C491CC2391F0FA
:1005A00081110E94C401EC2FF0E0EE0FFF1FE8590B
:1005B000FF4FA591B491EC91ED2391E080E021F4FF
:1005C00090E002C090E080E090936B0180936C011A
:1005D0006AE070E080E090E0DF91CF910C947D02C2
:1005E000009769F0FC0101900020E9F73197AF0115
:1005F000481B590BBC0181E791E00C94B40080E0EA
:1006000090E008958F929F92AF92BF920F931F93A5
:10061000CF93DF93CDB7DEB7A1970FB6F894DEBFC7
:100620000FBECDBF19A2423008F44AE08E010F5D23
:100630001F4F842E912CA12CB12CA50194010E9456
:100640007B06E62FB901CA0101501109EA3014F402
:10065000E05D01C0E95CD801EC93232B242B252B12
:1006600061F7C8010E94F002A1960FB6F894DEBFB0
:100670000FBECDBFDF91CF911F910F91BF90AF9073
:100680009F908F9008950C94F002CF92DF92EF929A
:10069000FF92CF93DF936C01990FEE08FF08F7FEEE
:1006A00013C06DE281E791E00E944B01EC016627E7
:1006B0007727CB016C197D098E099F094AE00E94BA
:1006C0000203C80FD91F06C04AE0C701B6010E9445
:1006D0000203EC0183E291E00E94F0028C0F9D1F67
:1006E000DF91CF91FF90EF90DF90CF9008950E941F
:1006F000A3061F920F920FB60F9211242F933F93D0
:100700004F935F936F937F938F939F93AF93BF9319
:10071000EF93FF9381E791E00E942901FF91EF9110
:10072000BF91AF919F918F917F916F915F914F9109
:100730003F912F910F900FBE0F901F9018951F9211
:100740000F920FB60F9211242F938F939F93EF93D5
:10075000FF93E0918101F09182018081E091870116
:10076000F091880182FD12C0908180918A018F5F93
:100770008F7320918B01821751F0E0918A01F0E094
:10078000EF58FE4F958F80938A0101C08081FF91C1
:10079000EF919F918F912F910F900FBE0F901F900F
:1007A00018951F920F920FB60F9211242F933F931B
:1007B0008F939F93AF93BF9380916101909162015A
:1007C000A0916301B09164013091600123E0230F97
:1007D0002D3720F40196A11DB11D05C026E8230F79
:1007E0000296A11DB11D2093600180936101909339
:1007F0006201A0936301B0936401809165019091BF
:100800006601A0916701B09168010196A11DB11D1B
:100810008093650190936601A0936701B09368018E
:10082000BF91AF919F918F913F912F910F900FBEEC
:100830000F901F901895E1E7F1E01382128288EE85
:1008400093E0A0E0B0E084839583A683B78386E03D
:1008500091E09183808385EC90E09587848784EC98
:1008600090E09787868780EC90E0918B808B81EC7D
:1008700090E0938B828B82EC90E0958B848B86EC5E
:1008800090E0978B868B118E128E138E148EEEE075
:10089000F2E016821782108611861286138614865D
:1008A000158616861786108A118A128A138A148A68
:1008B000158A0895789484B5826084BD84B581607A
:1008C00084BD85B5826085BD85B5816085BD80911B
:1008D0006E00816080936E00109281008091810093
:1008E000826080938100809181008160809381008B
:1008F000809180008160809380008091B10084604D
:100900008093B1008091B00081608093B0008091AD
:100910007A00846080937A0080917A00826080936C
:100920007A0080917A00816080937A0080917A00C9
:10093000806880937A001092C10010925002109249
:100940005102109252021092530210921002109211
:10095000110210921202109213020E94B7026B0150
:100960007C014B015C0128EB820E2BE0921EA11C46
:10097000B11C0E94B7026C157D058E059F0528F0FD
:1009800086169706A806B906A0F760ED77E080E026
:1009900090E00E947D020E948C000E94B70260934A
:1009A000100270931102809312029093130284E15B
:1009B00091E00E9443030E94B7026B017C014B014E
:1009C0005C013AE0830E911CA11CB11C0E94B7028D
:1009D0006C157D058E059F0528F086169706A806DE
:1009E000B906A0F781E08093240261E082E00E94D2
:1009F0001C0261E083E00E941C0261E084E00E942E
:100A00001C0261E085E00E941C0260E08AE00E9416
:100A10001C020E948C0084EFC82EDD24D394E12CAC
:100A2000F12C06E010E00E94B702672B682B692BBF
:100A300041F40E94B702623071058105910508F406
:100A4000E4C00E94B70280906D0190906E01A0906A
:100A50006F01B0907001681579058A059B0540F417
:100A600060936D0170936E0180936F01909370019C
:100A700080906D0190906E01A0906F01B090700118
:100A80009B01AC01281939094A095B0949015A013E
:100A90003AEF83169104A104B10408F4B6C0609340
:100AA0006D0170936E0180936F0190937001C092FD
:100AB0001C02D0921D02E0921E02F0921F021092C0
:100AC00020021092210210922202109223028091A1
:100AD000140290911502A0911602B0911702809312
:100AE000180290931902A0931A02B0931B020E945D
:100AF000B7026093140270931502809316029093CC
:100B000017020E94B7026093100270931102809343
:100B10001202909313020E94B7024B015C0186E21D
:100B200091E00E9443034AE061E070E080E090E0E1
:100B30000E9402038DE291E00E9443034AE0C50156
:100B4000B4010E9402038FE291E00E94430380916E
:100B5000140290911502A0911602B0911702A501FE
:100B60009401281B390B4A0B5B0BCA01B9014AE0FF
:100B70000E9402038FE291E00E94430380911402DD
:100B800090911502A0911602B09117028090180260
:100B900090901902A0901A02B0901B02BC01CD01E6
:100BA000681979098A099B094AE00E94020381E3D6
:100BB00091E00E9443030E94B7024AE00E940203B0
:100BC00083E391E00E94F00283E291E00E94F00250
:100BD0000E94B7022B013C014B015C0135E0830E02
:100BE000911CA11CB11C0E94B702641575058605F5
:100BF000970508F079C00E94B702609314027093C1
:100C0000150280931602909317020E94C3028091EE
:100C10006B0190916C0118161906CCF4C2E061E0EA
:100C20008C2F0E94ED018091690190916A010297D9
:100C300090936A01809369016AEF70E080E090E030
:100C40000E947D02CF5FC63051F70E94C30280919F
:100C5000690190916A01893C910504F1C4E0D0E0FA
:100C6000809100019091010101979093010180937F
:100C7000000160E00E94ED0164EF71E080E090E02F
:100C80000E947D02219761F71093010100930001FA
:100C90000E94C30210926A01109269018AE391E0F6
:100CA0000E9443038091690190916A010E9445036B
:100CB00080E591E00E94430380916B0190916C016B
:100CC0000E9445036AEF70E080E090E00E947D02A0
:100CD0008091690190916A01019690936A018093D5
:100CE00069010E94BA019FCE86169706A806B9062A
:100CF00008F079CF80CFA1E21A2EAA1BBB1BFD0101
:100D00000DC0AA1FBB1FEE1FFF1FA217B307E407EA
:100D1000F50720F0A21BB30BE40BF50B661F771F42
:100D2000881F991F1A9469F7609570958095909522
:100D30009B01AC01BD01CF010895EE0FFF1F05908F
:100D4000F491E02D099481E090E0F8940C94A806C9
:040D5000F894FFCF45
:100D54000700000000004B01B400E20098011301F9
:100D6400F1000501564D4450565F317C315F564DBC
:100D74004450560D0A00564D4450455F003A323AED
:100D8400007C005F564D4450450065737461646F88
:100D940020646F20636F6E7461646F72203A200068
:100DA40065737461646F20646F204952203A200097
:00000001FF
